:020000040800F2
:100000003701F6BF130181FFEF00C00073101080AD
:100010006F000000130101FF23261100232481003B
:100020001306F0FFF3174080E38E07FEF3175080AE
:1000300073174080E30E07FE731750801317870075
:100040003367F700F3174080E38E07FEF317508005
:100050009397070133E7E700F3174080E38E07FE2D
:10006000F317508093978701B3E7E7006392C70ABD
:100070001306F0FFF3174080E38E07FEF31750805E
:1000800073174080E30E07FE731750801317870025
:100090003367F700F3174080E38E07FEF3175080B5
:1000A0009397070133E7E700F3174080E38E07FEDD
:1000B000F317508093978701B3E7E700638CC70A73
:1000C00073174080E30E07FE73175080F3164080CD
:1000D000E38E06FEF316508093968600B3E6E600A4
:1000E00073174080E30E07FE731750801317070144
:1000F000B366D70073174080E30E07FE7317508076
:10010000131787013367D70023A0E7006FF09FF62E
:1001100073174080E30E07FE73175080F31640807C
:10012000E38E06FEF316508093968600B3E6E60053
:1001300073174080E30E07FE7317508013170701F3
:10014000B366D70073174080E30E07FE7317508025
:10015000131787013367D700739067807310778018
:10016000F3160082E38E06FE7390178273102782C7
:100170006FF05FEB930700003787000013850700DF
:100180000800050093870704E39AE7FE0F00300399
:100190003704000893070440E78007006700040065
:1001A0008320C10003248100130500001301010115
:0401B0006780000064
:0400000508000000EF
:00000001FF
